{
  "_format": "hh3-artifact-1",
  "contractName": "SubdomainVendingMachine",
  "sourceName": "contracts/SubdomainVendingMachine.sol",
  "abi": [
    {
      "inputs": [
        {
          "internalType": "contract IRNSRegistry",
          "name": "_registry",
          "type": "address"
        },
        {
          "internalType": "contract IRNSResolver",
          "name": "_resolver",
          "type": "address"
        },
        {
          "internalType": "contract IERC20",
          "name": "_rifToken",
          "type": "address"
        },
        {
          "internalType": "bytes32",
          "name": "_parentNode",
          "type": "bytes32"
        },
        {
          "internalType": "uint256",
          "name": "_initialPrice",
          "type": "uint256"
        },
        {
          "internalType": "address",
          "name": "_owner",
          "type": "address"
        }
      ],
      "stateMutability": "nonpayable",
      "type": "constructor"
    },
    {
      "inputs": [],
      "name": "AlreadyRegistered",
      "type": "error"
    },
    {
      "inputs": [],
      "name": "AmountZero",
      "type": "error"
    },
    {
      "inputs": [],
      "name": "EmptyLabel",
      "type": "error"
    },
    {
      "inputs": [],
      "name": "EnforcedPause",
      "type": "error"
    },
    {
      "inputs": [],
      "name": "ExpectedPause",
      "type": "error"
    },
    {
      "inputs": [],
      "name": "InsufficientBalance",
      "type": "error"
    },
    {
      "inputs": [],
      "name": "NotParentOwner",
      "type": "error"
    },
    {
      "inputs": [
        {
          "internalType": "address",
          "name": "owner",
          "type": "address"
        }
      ],
      "name": "OwnableInvalidOwner",
      "type": "error"
    },
    {
      "inputs": [
        {
          "internalType": "address",
          "name": "account",
          "type": "address"
        }
      ],
      "name": "OwnableUnauthorizedAccount",
      "type": "error"
    },
    {
      "inputs": [],
      "name": "ReentrancyGuardReentrantCall",
      "type": "error"
    },
    {
      "inputs": [
        {
          "internalType": "address",
          "name": "token",
          "type": "address"
        }
      ],
      "name": "SafeERC20FailedOperation",
      "type": "error"
    },
    {
      "inputs": [],
      "name": "ZeroAddress",
      "type": "error"
    },
    {
      "anonymous": false,
      "inputs": [
        {
          "indexed": true,
          "internalType": "address",
          "name": "to",
          "type": "address"
        },
        {
          "indexed": false,
          "internalType": "uint256",
          "name": "amount",
          "type": "uint256"
        }
      ],
      "name": "FundsWithdrawn",
      "type": "event"
    },
    {
      "anonymous": false,
      "inputs": [
        {
          "indexed": true,
          "internalType": "address",
          "name": "previousOwner",
          "type": "address"
        },
        {
          "indexed": true,
          "internalType": "address",
          "name": "newOwner",
          "type": "address"
        }
      ],
      "name": "OwnershipTransferred",
      "type": "event"
    },
    {
      "anonymous": false,
      "inputs": [
        {
          "indexed": true,
          "internalType": "address",
          "name": "to",
          "type": "address"
        }
      ],
      "name": "ParentNodeReclaimed",
      "type": "event"
    },
    {
      "anonymous": false,
      "inputs": [
        {
          "indexed": false,
          "internalType": "address",
          "name": "account",
          "type": "address"
        }
      ],
      "name": "Paused",
      "type": "event"
    },
    {
      "anonymous": false,
      "inputs": [
        {
          "indexed": false,
          "internalType": "uint256",
          "name": "oldPrice",
          "type": "uint256"
        },
        {
          "indexed": false,
          "internalType": "uint256",
          "name": "newPrice",
          "type": "uint256"
        }
      ],
      "name": "PriceUpdated",
      "type": "event"
    },
    {
      "anonymous": false,
      "inputs": [
        {
          "indexed": false,
          "internalType": "address",
          "name": "oldResolver",
          "type": "address"
        },
        {
          "indexed": false,
          "internalType": "address",
          "name": "newResolver",
          "type": "address"
        }
      ],
      "name": "ResolverUpdated",
      "type": "event"
    },
    {
      "anonymous": false,
      "inputs": [
        {
          "indexed": true,
          "internalType": "bytes32",
          "name": "parentNode",
          "type": "bytes32"
        },
        {
          "indexed": true,
          "internalType": "bytes32",
          "name": "labelhash",
          "type": "bytes32"
        },
        {
          "indexed": true,
          "internalType": "address",
          "name": "owner",
          "type": "address"
        },
        {
          "indexed": false,
          "internalType": "uint256",
          "name": "price",
          "type": "uint256"
        }
      ],
      "name": "SubdomainRegistered",
      "type": "event"
    },
    {
      "anonymous": false,
      "inputs": [
        {
          "indexed": false,
          "internalType": "address",
          "name": "account",
          "type": "address"
        }
      ],
      "name": "Unpaused",
      "type": "event"
    },
    {
      "inputs": [
        {
          "internalType": "string",
          "name": "label",
          "type": "string"
        }
      ],
      "name": "isAvailable",
      "outputs": [
        {
          "internalType": "bool",
          "name": "",
          "type": "bool"
        }
      ],
      "stateMutability": "view",
      "type": "function"
    },
    {
      "inputs": [],
      "name": "owner",
      "outputs": [
        {
          "internalType": "address",
          "name": "",
          "type": "address"
        }
      ],
      "stateMutability": "view",
      "type": "function"
    },
    {
      "inputs": [],
      "name": "parentNode",
      "outputs": [
        {
          "internalType": "bytes32",
          "name": "",
          "type": "bytes32"
        }
      ],
      "stateMutability": "view",
      "type": "function"
    },
    {
      "inputs": [],
      "name": "pause",
      "outputs": [],
      "stateMutability": "nonpayable",
      "type": "function"
    },
    {
      "inputs": [],
      "name": "paused",
      "outputs": [
        {
          "internalType": "bool",
          "name": "",
          "type": "bool"
        }
      ],
      "stateMutability": "view",
      "type": "function"
    },
    {
      "inputs": [],
      "name": "pricePerSubdomain",
      "outputs": [
        {
          "internalType": "uint256",
          "name": "",
          "type": "uint256"
        }
      ],
      "stateMutability": "view",
      "type": "function"
    },
    {
      "inputs": [
        {
          "internalType": "address",
          "name": "to",
          "type": "address"
        }
      ],
      "name": "reclaimParentNode",
      "outputs": [],
      "stateMutability": "nonpayable",
      "type": "function"
    },
    {
      "inputs": [
        {
          "internalType": "string",
          "name": "label",
          "type": "string"
        },
        {
          "internalType": "address",
          "name": "owner_",
          "type": "address"
        }
      ],
      "name": "register",
      "outputs": [],
      "stateMutability": "nonpayable",
      "type": "function"
    },
    {
      "inputs": [],
      "name": "registry",
      "outputs": [
        {
          "internalType": "contract IRNSRegistry",
          "name": "",
          "type": "address"
        }
      ],
      "stateMutability": "view",
      "type": "function"
    },
    {
      "inputs": [],
      "name": "renounceOwnership",
      "outputs": [],
      "stateMutability": "nonpayable",
      "type": "function"
    },
    {
      "inputs": [],
      "name": "resolver",
      "outputs": [
        {
          "internalType": "contract IRNSResolver",
          "name": "",
          "type": "address"
        }
      ],
      "stateMutability": "view",
      "type": "function"
    },
    {
      "inputs": [],
      "name": "rifToken",
      "outputs": [
        {
          "internalType": "contract IERC20",
          "name": "",
          "type": "address"
        }
      ],
      "stateMutability": "view",
      "type": "function"
    },
    {
      "inputs": [
        {
          "internalType": "uint256",
          "name": "newPrice",
          "type": "uint256"
        }
      ],
      "name": "setPrice",
      "outputs": [],
      "stateMutability": "nonpayable",
      "type": "function"
    },
    {
      "inputs": [
        {
          "internalType": "contract IRNSResolver",
          "name": "newResolver",
          "type": "address"
        }
      ],
      "name": "setResolver",
      "outputs": [],
      "stateMutability": "nonpayable",
      "type": "function"
    },
    {
      "inputs": [
        {
          "internalType": "string",
          "name": "label",
          "type": "string"
        }
      ],
      "name": "subnodeOf",
      "outputs": [
        {
          "internalType": "bytes32",
          "name": "",
          "type": "bytes32"
        }
      ],
      "stateMutability": "view",
      "type": "function"
    },
    {
      "inputs": [
        {
          "internalType": "address",
          "name": "newOwner",
          "type": "address"
        }
      ],
      "name": "transferOwnership",
      "outputs": [],
      "stateMutability": "nonpayable",
      "type": "function"
    },
    {
      "inputs": [],
      "name": "unpause",
      "outputs": [],
      "stateMutability": "nonpayable",
      "type": "function"
    },
    {
      "inputs": [
        {
          "internalType": "address",
          "name": "to",
          "type": "address"
        },
        {
          "internalType": "uint256",
          "name": "amount",
          "type": "uint256"
        }
      ],
      "name": "withdraw",
      "outputs": [],
      "stateMutability": "nonpayable",
      "type": "function"
    }
  ],
  "bytecode": "0x60e060405234801561000f575f5ffd5b5060405161137538038061137583398101604081905261002e916101c4565b806001600160a01b03811661005c57604051631e4fbdf760e01b81525f600482015260240160405180910390fd5b6100658161015e565b50600180556001600160a01b0386166100915760405163d92e233d60e01b815260040160405180910390fd5b6001600160a01b0385166100b85760405163d92e233d60e01b815260040160405180910390fd5b6001600160a01b0384166100df5760405163d92e233d60e01b815260040160405180910390fd5b826100fd5760405163cccf65f560e01b815260040160405180910390fd5b6001600160a01b0381166101245760405163d92e233d60e01b815260040160405180910390fd5b506001600160a01b03948516608052600280546001600160a01b03191694861694909417909355921660a05260c091909152600355610234565b5f80546001600160a01b038381166001600160a01b0319831681178455604051919092169283917f8be0079c531659141344cd1fd0a4f28419497f9722a3daafe3b4186f6b6457e09190a35050565b6001600160a01b03811681146101c1575f5ffd5b50565b5f5f5f5f5f5f60c087890312156101d9575f5ffd5b86516101e4816101ad565b60208801519096506101f5816101ad565b6040880151909550610206816101ad565b80945050606087015192506080870151915060a0870151610226816101ad565b809150509295509295509295565b60805160a05160c0516110ae6102c75f395f818161027b015281816102f6015281816104cd0152818161066b015281816109260152610c5901525f818161015f0152818161049601528181610a940152610b3501525f81816101e701528181610326015281816103f001528181610500015281816105860152818161060501528181610864015261095c01526110ae5ff3fe608060405234801561000f575f5ffd5b5060043610610111575f3560e01c80638456cb591161009e578063b272bd791161006e578063b272bd7914610247578063c1965c4d1461025a578063f2fde38b14610263578063f3068a0014610276578063f3fef3a31461029d575f5ffd5b80638456cb59146102095780638da5cb5b1461021157806391b7f5ed14610221578063965306aa14610234575f5ffd5b80634e543b26116100e45780634e543b26146101895780635b0707b11461019c5780635c975abb146101bd578063715018a6146101da5780637b103999146101e2575f5ffd5b806304f3bcec146101155780631e59c52914610145578063262ec4a91461015a5780633f4ba83a14610181575b5f5ffd5b600254610128906001600160a01b031681565b6040516001600160a01b0390911681526020015b60405180910390f35b610158610153366004610f42565b6102b0565b005b6101287f000000000000000000000000000000000000000000000000000000000000000081565b6101586106d4565b610158610197366004610f95565b6106e6565b6101af6101aa366004610fb7565b6107a3565b60405190815260200161013c565b5f54600160a01b900460ff165b604051901515815260200161013c565b6101586107c2565b6101287f000000000000000000000000000000000000000000000000000000000000000081565b6101586107d3565b5f546001600160a01b0316610128565b61015861022f366004610ff6565b6107e3565b6101ca610242366004610fb7565b610829565b610158610255366004610f95565b6108e0565b6101af60035481565b610158610271366004610f95565b6109e9565b6101af7f000000000000000000000000000000000000000000000000000000000000000081565b6101586102ab36600461100d565b610a26565b6102b8610bad565b6102c0610bd7565b6001600160a01b0381166102e75760405163d92e233d60e01b815260040160405180910390fd5b6040516302571be360e01b81527f0000000000000000000000000000000000000000000000000000000000000000600482015230906001600160a01b037f000000000000000000000000000000000000000000000000000000000000000016906302571be390602401602060405180830381865afa15801561036b573d5f5f3e3d5ffd5b505050506040513d601f19601f8201168201806040525081019061038f9190611037565b6001600160a01b0316146103b657604051632588f19b60e11b815260040160405180910390fd5b5f6103c18484610c01565b90505f6103cd82610c53565b6040516302571be360e01b8152600481018290529091505f906001600160a01b037f000000000000000000000000000000000000000000000000000000000000000016906302571be390602401602060405180830381865afa158015610435573d5f5f3e3d5ffd5b505050506040513d601f19601f820116820180604052508101906104599190611037565b6001600160a01b03161461048057604051630ea075bf60e21b815260040160405180910390fd5b60035480156104be576104be6001600160a01b037f000000000000000000000000000000000000000000000000000000000000000016333084610ca5565b6040516306ab592360e01b81527f00000000000000000000000000000000000000000000000000000000000000006004820152602481018490523060448201527f00000000000000000000000000000000000000000000000000000000000000006001600160a01b0316906306ab5923906064015f604051808303815f87803b158015610549575f5ffd5b505af115801561055b573d5f5f3e3d5ffd5b5050600254604051630c4b7b8560e11b8152600481018690526001600160a01b0391821660248201527f00000000000000000000000000000000000000000000000000000000000000009091169250631896f70a91506044015f604051808303815f87803b1580156105cb575f5ffd5b505af11580156105dd573d5f5f3e3d5ffd5b5050604051635b0fc9c360e01b8152600481018590526001600160a01b0387811660248301527f0000000000000000000000000000000000000000000000000000000000000000169250635b0fc9c391506044015f604051808303815f87803b158015610648575f5ffd5b505af115801561065a573d5f5f3e3d5ffd5b50505050836001600160a01b0316837f00000000000000000000000000000000000000000000000000000000000000007f3a4763c7ba89381320a508bdec7c921dadf137314911a25fc74feef84f2c86ee846040516106bb91815260200190565b60405180910390a45050506106cf60018055565b505050565b6106dc610d12565b6106e4610d3e565b565b6106ee610d12565b6001600160a01b0381166107415760405162461bcd60e51b815260206004820152601560248201527453564d3a207265736f6c766572206973207a65726f60581b60448201526064015b60405180910390fd5b600280546001600160a01b038381166001600160a01b031983168117909355604080519190921680825260208201939093527f84b83d2b66cac119ccaaca68b476b0dc5371d5f2fd27f697770a910175fd38b691015b60405180910390a15050565b5f5f6107af8484610c01565b90506107ba81610c53565b949350505050565b6107ca610d12565b6106e45f610d92565b6107db610d12565b6106e4610de1565b6107eb610d12565b600380549082905560408051828152602081018490527f945c1c4e99aa89f648fbfe3df471b916f719e16d960fcec0737d4d56bd6968389101610797565b5f5f6108358484610c01565b90505f61084182610c53565b6040516302571be360e01b8152600481018290529091505f906001600160a01b037f000000000000000000000000000000000000000000000000000000000000000016906302571be390602401602060405180830381865afa1580156108a9573d5f5f3e3d5ffd5b505050506040513d601f19601f820116820180604052508101906108cd9190611037565b6001600160a01b03161495945050505050565b6108e8610d12565b6108f0610e23565b6001600160a01b0381166109175760405163d92e233d60e01b815260040160405180910390fd5b604051635b0fc9c360e01b81527f000000000000000000000000000000000000000000000000000000000000000060048201526001600160a01b0382811660248301527f00000000000000000000000000000000000000000000000000000000000000001690635b0fc9c3906044015f604051808303815f87803b15801561099d575f5ffd5b505af11580156109af573d5f5f3e3d5ffd5b50506040516001600160a01b03841692507f2d02f35664fbaafe5f7ad0f7fda544f58c332e924f59debd4f2dafca5765240191505f90a250565b6109f1610d12565b6001600160a01b038116610a1a57604051631e4fbdf760e01b81525f6004820152602401610738565b610a2381610d92565b50565b610a2e610d12565b610a36610bad565b6001600160a01b038216610a5d5760405163d92e233d60e01b815260040160405180910390fd5b805f03610a7d576040516365e52d5160e11b815260040160405180910390fd5b6040516370a0823160e01b81523060048201525f907f00000000000000000000000000000000000000000000000000000000000000006001600160a01b0316906370a0823190602401602060405180830381865afa158015610ae1573d5f5f3e3d5ffd5b505050506040513d601f19601f82011682018060405250810190610b059190611052565b905080821115610b2857604051631e9acf1760e31b815260040160405180910390fd5b610b5c6001600160a01b037f0000000000000000000000000000000000000000000000000000000000000000168484610e4c565b826001600160a01b03167feaff4b37086828766ad3268786972c0cd24259d4c87a80f9d3963a3c3d999b0d83604051610b9791815260200190565b60405180910390a250610ba960018055565b5050565b600260015403610bd057604051633ee5aeb560e01b815260040160405180910390fd5b6002600155565b5f54600160a01b900460ff16156106e45760405163d93c066560e01b815260040160405180910390fd5b5f818103610c225760405163cccf65f560e01b815260040160405180910390fd5b8282604051602001610c35929190611069565b60405160208183030381529060405280519060200120905092915050565b604080517f000000000000000000000000000000000000000000000000000000000000000060208201529081018290525f90606001604051602081830303815290604052805190602001209050919050565b6040516001600160a01b038481166024830152838116604483015260648201839052610d0c9186918216906323b872dd906084015b604051602081830303815290604052915060e01b6020820180516001600160e01b038381831617835250505050610e7d565b50505050565b5f546001600160a01b031633146106e45760405163118cdaa760e01b8152336004820152602401610738565b610d46610e23565b5f805460ff60a01b191690557f5db9ee0a495bf2e6ff9c91a7834c1ba4fdd244a5e8aa4e537bd38aeae4b073aa335b6040516001600160a01b03909116815260200160405180910390a1565b5f80546001600160a01b038381166001600160a01b0319831681178455604051919092169283917f8be0079c531659141344cd1fd0a4f28419497f9722a3daafe3b4186f6b6457e09190a35050565b610de9610bd7565b5f805460ff60a01b1916600160a01b1790557f62e78cea01bee320cd4e420270b5ea74000d11b0c9f74754ebdbfc544b05a258610d753390565b5f54600160a01b900460ff166106e457604051638dfc202b60e01b815260040160405180910390fd5b6040516001600160a01b038381166024830152604482018390526106cf91859182169063a9059cbb90606401610cda565b5f5f60205f8451602086015f885af180610e9c576040513d5f823e3d81fd5b50505f513d91508115610eb3578060011415610ec0565b6001600160a01b0384163b155b15610d0c57604051635274afe760e01b81526001600160a01b0385166004820152602401610738565b5f5f83601f840112610ef9575f5ffd5b50813567ffffffffffffffff811115610f10575f5ffd5b602083019150836020828501011115610f27575f5ffd5b9250929050565b6001600160a01b0381168114610a23575f5ffd5b5f5f5f60408486031215610f54575f5ffd5b833567ffffffffffffffff811115610f6a575f5ffd5b610f7686828701610ee9565b9094509250506020840135610f8a81610f2e565b809150509250925092565b5f60208284031215610fa5575f5ffd5b8135610fb081610f2e565b9392505050565b5f5f60208385031215610fc8575f5ffd5b823567ffffffffffffffff811115610fde575f5ffd5b610fea85828601610ee9565b90969095509350505050565b5f60208284031215611006575f5ffd5b5035919050565b5f5f6040838503121561101e575f5ffd5b823561102981610f2e565b946020939093013593505050565b5f60208284031215611047575f5ffd5b8151610fb081610f2e565b5f60208284031215611062575f5ffd5b5051919050565b818382375f910190815291905056fea264697066735822122068bcc14b8603c7e564eeca46d00e585a4cf9abcfa6d1fa270c2af5962f20f8b664736f6c634300081c0033",
  "linkReferences": {},
  "deployedLinkReferences": {},
  "immutableReferences": {
    "1039": [
      {
        "length": 32,
        "start": 487
      },
      {
        "length": 32,
        "start": 806
      },
      {
        "length": 32,
        "start": 1008
      },
      {
        "length": 32,
        "start": 1280
      },
      {
        "length": 32,
        "start": 1414
      },
      {
        "length": 32,
        "start": 1541
      },
      {
        "length": 32,
        "start": 2148
      },
      {
        "length": 32,
        "start": 2396
      }
    ],
    "1045": [
      {
        "length": 32,
        "start": 351
      },
      {
        "length": 32,
        "start": 1174
      },
      {
        "length": 32,
        "start": 2708
      },
      {
        "length": 32,
        "start": 2869
      }
    ],
    "1047": [
      {
        "length": 32,
        "start": 635
      },
      {
        "length": 32,
        "start": 758
      },
      {
        "length": 32,
        "start": 1229
      },
      {
        "length": 32,
        "start": 1643
      },
      {
        "length": 32,
        "start": 2342
      },
      {
        "length": 32,
        "start": 3161
      }
    ]
  },
  "inputSourceName": "project/contracts/SubdomainVendingMachine.sol",
  "buildInfoId": "solc-0_8_28-f8f993d58546207f31cf9a6aa2f3e2068ab0cae7"
}